:100000000C942A000C943C000C943C000C943C0092
:100010000C943C000C943C000C943E000C943C006E
:100020000C943C000C943C000C943C000C943C0060
:100030000C943C000C943C000C943C000C943C0050
:100040000C943C000C943C000C943C000C943C0040
:100050000C943C0011241FBECFE5D4E0DEBFCDBF21
:1000600010E0A0E6B0E001C01D92A236B107E1F7B2
:100070000E9466000C947E000C9400001F920F9268
:100080000FB60F9211248F939F938091600081305F
:1000900099F410926000809161008F5F80936100FD
:1000A0008A3010F01092610080E385BB85B3909197
:1000B0006100892B85BB03C081E0809360009F9124
:1000C0008F910F900FBE0F901F901895789484E138
:1000D00089BF8FEF84BB80E385BB0E947000FFCF98
:1000E0008FEF81BB8CE58FBD8DE08EBD8FE18BBD29
:1000F00080EF8ABD9FE099BD88BD0895F894FFCF39
:00000001FF
